S01700007573625F73657269616C5F746573742E73726563C5
S11300000C9456000C9460000C9460000C946000F6
S11300100C9460000C9460000C9460000C946000DC
S11300200C9460000C9460000C9460000C946000CC
S11300300C9460000C9460000C9460000C946000BC
S11300400C9460000C9460000C9460000C946000AC
S11300500C9460000C9460000C9460000C9460009C
S11300600C9460000C9460000C9460000C9460008C
S11300700C9460000C9460000C9460000C9460007C
S11300800C9460000C9460000C9460000C9460006C
S11300900C9460000C9460000C9460000C9460005C
S11300A00C9460000C9460000C94600011241FBE3A
S11300B0CFEFDAE0DEBFCDBF0E9469000C946F0081
S11300C00C94000080B3806280BB81B38F7D81BBC0
S11300D008950E94620081B3806281BBFCCFF894D2
S10500E0FFCF4C
S9030000FC
